:020000040800F2
:10000000C8070020D5000008A54700089F3A00084F
:1000100000000000000000000000000000000000E0
:10002000000000000000000000000000194C000863
:100030000000000000000000F9470008DD4C000847
:10004000E700000800000000E7000008E7000008E3
:10005000E7000008E7000008E7000008E7000008E4
:100060000000000075120008E7000008E700000823
:10007000E7000008E7000008E700000800000000B3
:10008000654D00080000000000000000E7000008C7
:1000900000000000E7000008E7000008E700000893
:1000A000E7000008E7000008E7000008E700000894
:1000B000ED560008000000000000000000000000F5
:1000C0000348854600F0E8FB00480047316000081F
:1000D000C80700200448804704480047FEE7FEE7C1
:1000E000FEE7FEE7FEE7FEE7554D0008C100000809
:1000F00030B50B46014600202022012409E00D46C0
:10010000D5409D4205D31D469540491B2546954047
:1001100040191546521E002DF1DC30BD70B500248B
:100120002546002801DA01244042002901DA012590
:100130004942FFF7DDFFAC4200D04042002C00D026
:10014000494270BDD2B201E00270401C491EFBD290
:1001500070470022F6E710B513460A4604461946D2
:10016000FFF7F0FF204610BDF8B502464A40D40F15
:1001700042004B0052085B089A4202D202460846EF
:1001800011464A0023D0C30D4A00DDB2120EAD1A4B
:10019000202D35DA49020126490AF6058A19002C74
:1001A00000D0524220214F1B1146B9402A4110185D
:1001B000C20D9A4221D0002C17D0012D08DCDA059F
:1001C000801AD20F8019D207DBB200F08CF9F8BD8B
:1001D000DA05801A012340001B06C01880185A4215
:1001E0008018CA0F1043490007E04908C2071143AD
:1001F000DA05801A80194008801800F06CF9F8BD03
:1002000061000122511A001BF7E70122D207514079
:10021000AAE70122D2075040A6E7024670B54A403D
:10022000D30FDB0740002DD04A002AD0010E140E58
:10023000000212020919400A520A8418E501044614
:100240005443000A120A2E045043A4194219200CE8
:10025000C543AA18120C0125AD03521C52191204F1
:100260007F39240400D0521C104301D44000491EA1
:10027000C2B20C06C0092018401C4008802A02D0D7
:1002800003E0002070BD40084000002900DA002093
:10029000184370BD70B502464A40D50F40004A0071
:1002A000ED0740085208002814D0002A12D0C40DCF
:1002B000D30D41020120C0055202490A520AE41A34
:1002C000091812187D34914201D3641C00E04900E2
:1002D000002C01DA002070BD0023914201D3891A5D
:1002E0000343400849000028F7D100290AD0914271
:1002F00002D10121C90705E0914201D2012101E0AB
:100300000121C943E005C018401900F0E4F870BDB0
:10031000420005D04200120E52428A4201DB002008
:100320007047C90508187047F0B51FB488B00B991D
:100330000998002448400999C00F490049080991CB
:10034000C0070B990090490049080B91099908983A
:10035000A64608431CD00B990A98084318D0099860
:1003600001244000420D4800410D09982405000376
:10037000000B204309900B980003000B20430B90C7
:1003800050181C494018002201901446104605E000
:10039000002001460DB0F0BD032801DA034600E05D
:1003A00003239C46C11A0AAE0AE05F0008ADED5B6C
:1003B0004F00F75B7D430027AA187C41491C5B1E58
:1003C0006145F2DD410004AB5A522104120C0A438C
:1003D000240C401C0828DFDB01980290009970462D
:1003E00001910090059B049A0799069800F0C1F8C6
:1003F000D0E700000DFCFFFFC217C10F504010B541
:100400004018CA079623002100F06DF810BD10B502
:1004100000229623114600F066F810BDC20F41007D
:1004200040020123400ADB05D207090EC0187F29CC
:1004300001DA00207047962903DC9623591AC84038
:1004400001E096398840002AF4D0404270474100CC
:1004500040020122400AD205090E80187F2901DAE4
:1004600000207047962903DC9622511AC840704735
:10047000963988407047C20FD207400040080BD021
:10048000C10D0723DB01C91840020905400A1143C9
:10049000C208400711437047002001467047CB0F48
:1004A000DB07490010B5490802460A4307D00A0D88
:1004B00007240903E401090B121B002A01DC0020B8
:1004C00010BDC900440F0C43C100E018D2058018CC
:1004D00000F001F810BD002904DA401C490001D1E8
:1004E00040084000704770B40024050C05D110246A
:1004F000000402D1002921D01124050E01D10002EF
:100500000834050F01D10001241D850F01D18000A1
:10051000A41C002801DB4000641C002908D0202511
:100520002E1B0D46F540A14000D001212943084370
:1005300001061B1B000ADB1D02D5002070BC7047A2
:10054000DB05181880180029F8DA401C4900F5D19D
:1005500070BC40084000704710B5002B08DA00243A
:10056000401C614192185B411A4301D14008400090
:1005700010BDF0B51FB482B005460C0003D008468C
:1005800005F0BCF802E005F0B9F820300246009012
:100590002146284600F092F9049B059A04460F462E
:1005A00018431143084314D0184610431BD0009839
:1005B00040210A1A1846059900F090F905460E46A2
:1005C000009A0599049800F079F9084305D00120B4
:1005D00004E02046394607B0F0BD0020C1170543AE
:1005E0000E432C43374300990E986305401A790552
:1005F000E40A00220C43FD0A0A3002D5002001461D
:10060000E9E70105101969410C9C0D9D001969412C
:10061000FFF7A2FFDFE70000F0B5074608465840A5
:1006200087B0C00F049048000E46590040084908A2
:10063000BC1A884105D2384631461E4617460B463D
:1006400002465800400810434CD0300D039040053E
:100650005900400D490D0590401A0290402872DA69
:1006600018030121000B090508430190049800922A
:10067000002805D001995242002088410092019043
:10068000029840210A1A0199009800F017F90546CE
:100690000C466B4607CB00F032F9C0197141039A42
:1006A0000E0D0023D71756401A467A40164344D001
:1006B000049A002A2DD0029A012A039A15DC120509
:1006C000C01A914101263605001C7141D20F059ECA
:1006D000D2070093019202962A462346FFF749FF6C
:1006E00007B0F0BD38463146FAE71605224A0F46F4
:1006F000B218C01AB74101210905001C4F4100186A
:100700007F41114618187941E20F10436D19644179
:1007100013E0E2076D0815436408C2071443039A07
:1007200001261205C01A91413605001C7141CE0701
:10073000400830434908C01851412A462346FFF774
:100740000BFFCDE7FFE7049801224000C117121A02
:1007500000238B4104983146C417381AA141EEE7B3
:1007600030B40124E407634030BC55E730B40124C1
:10077000E407614030BC4FE70000E0FFF0B50C46F5
:100780005C4085B0E40FE40703944C000026640845
:1007900059009446490802460296224321D06246F7
:1007A0000A431ED06200570D4A000E032303550D65
:1007B000012402462C492405781B1B0B360B4018DC
:1007C00023432643614600901C46501AB44103D38C
:1007D0000098401C009002E0921800985B410028AD
:1007E00003DA0020014605B0F0BD00200121090513
:1007F0000746864611E064461D46141BB54106D3E4
:100800006546521BB341744607430C43A646CD07C9
:1008100040084908284392185B4105460D43EAD138
:100820001046184313D060461946504071400843A3
:1008300006D06046101AB34106D20122002306E01A
:1008400000220123DB0702E00122D243531000986B
:1008500074460105381C6141029C039D00196941E1
:10086000FFF77AFEBFE70000FD03000070B54B0004
:100870005B0803430BD04B005C0D002633466542FA
:10088000B341D417AD1AA34102DB0020014670BD6D
:1008900012053018514170BD064C0125064E05E089
:1008A000E36807CC2B430C3C98471034B442F7D391
:1008B000FFF70AFC386200085862000810B5202AC9
:1008C00004DB0146203A9140002010BD91402023D6
:1008D0009C1A0346E3401943904010BD10B5202AEE
:1008E00004DB0846203AD040002110BD0B46D3401F
:1008F000D0402024A21A91400843194610BD10B5DB
:10090000202A06DBCB170846203A1041C1170B43BB
:1009100006E00B461341D0402024A21A9140084320
:10092000194610BDFEB500231A461B1A8A4103DB87
:100930000020014603B0F0BD4A000D0301212D0B3C
:100940000905520D0D43D10702D100186D41521E09
:100950005110FF31FF310131002704463E46384631
:10096000009701910246012100200905FFF7B6FF1B
:10097000C3197141F818324684468E464A41614691
:100980002846611A904104D36046241A9541764660
:100990001F46241900986D41401C00903428E1DD69
:1009A000F91930467041091BA84103D20022D243F5
:1009B000134601E00022134601980105381C7141DD
:1009C000FFF7CAFDB6E70000F8B50546002000278E
:1009D000285ECF5F0C46C01BFFF70EFD1B4909695F
:1009E0000091FFF71AFC06463846FFF705FD314631
:1009F000FFF7BAFBFFF712FD208002200227285ED6
:100A0000E75FC01BFFF7F8FC0099FFF706FC0646FE
:100A10003846FFF7F1FC3146FFF7A6FBFFF7FEFC77
:100A2000608004200426285EA65F801BFFF7E4FC9C
:100A30000099FFF7F2FB05463046FFF7DDFC29463B
:100A4000FFF792FBFFF7EAFCA080F8BD94000020BE
:100A500010B5846AA16D502211420DD1A06D012103
:100A600049020843A065206803F049FB00281BD019
:100A7000A07E002807D017E0A16DC90624D5204626
:100A800001F0B9FA10BD2068016809070CD503F020
:100A900032FB0146012000290AD0A16D202211431A
:100AA000A165E16D0143E165204601F097FA10BDB3
:100AB00021684A680C239A434A60A16DFF220132E3
:100AC00091430143A165EFE7216D496B884710BD54
:100AD00010B5806A816D402211438165C16D042289
:100AE0001143C16501F087FA10BD10B5806A01F0AD
:100AF00081FA10BDF8B50446006803F0F8FA002842
:100B00002ED120688168174A10261140002919D17A
:100B10008168D5432940491C8160607E01281FD02F
:100B200001F08EFE074616E003F0E1FA002804D13A
:100B3000206881682940491C816001F081FEC01B4A
:100B4000022808D9A06D3043A065E06D012108435B
:100B5000E0650846F8BD20680168C943C907E3D1CC
:100B60000020F8BD1700008010B503F09DFA04F0D6
:100B70005FF903F007FA0128FBD10649064800F0A7
:100B800009F901F0A9FD00F0E7FB04490120087014
:100B900010BD0000000020416F12833ACC000020FD
:100BA000F8B5524C0021E078401DC2B2032003E0AA
:100BB000235C5940401CC0B29042F9D3A05C8842EB
:100BC0007ED1207824287BD160784D2878D1A078F8
:100BD0003C2875D1207969282ED1444A90795379DF
:100BE000010243481943C18011460B7ACD791B029B
:100BF0002B438380937A557A1B022B4343800B7BD4
:100C0000CD7A1B022B430380937B557B1B022B4326
:100C100003810B7CCD7B1B022B434381937C557C52
:100C20001A022A4382810A7DCB7C11021943C181B9
:100C300003F0AEFF03F034FF2079CA2846D1607973
:100C4000FFF7E5FB2B49FFF725FB2B4D06462860F8
:100C5000A079FFF7DCFB2949FFF71CFB074668601A
:100C6000E079FFF7D4FB2649A8608860C0C1207AEC
:100C7000FFF7CDFB1F49FFF70DFB224D064628600D
:100C8000607AFFF7C4FB1D49FFF704FB0746686065
:100C9000A07AFFF7BCFB1C49A8608860C0C1E07A5D
:100CA000FFF7B5FB1349FFF7F5FA184D2860207BD5
:100CB000FFF7ADFB1149FFF7EDFA6860607B00E0DC
:100CC00013E0FFF7A4FBA86000F054FC2079CD28C6
:100CD00001D100F035FB2079CE2801D100F036FBA0
:100CE0002079D02801D103F05FFDF8BD80020020FB
:100CF00010010020000020414001002000007A4443
:100D00002C01002068010020540100207C010020FB
:100D100010B5154C6088401C80B26080012803D15A
:100D2000FFF73EFF03F07AFF60887D21C90088420B
:100D300003D301200D49608008700D480D490088DB
:100D400000B20880FF214B31884209DD0A48807BD0
:100D5000800702D503F062F910BD03F043F910BD1E
:100D6000022003F079F910BDCE0000208E00002093
:100D7000A8000020AC0000201001002010B50146A2
:100D8000024B0422024802F019FE10BDFFFF0000D2
:100D90002003002010B50A46044609491046FFF713
:100DA0003CFA01467F20C005FFF774FA2146FFF7A1
:100DB000DBF901462046FFF76DFA0249086110BDD4
:100DC000DB0FC94094000020F3B50C46C888614988
:100DD00083B042186048132A00D2E080A2885118DC
:100DE000132900D2A0802289BB21C900521A092AE6
:100DF00000D220816289511A092900D26081554EA2
:100E00006089093E8019FFF7F7FA544F3946FFF71A
:100E100041FA0546E0888019FFF7EEFA5049FFF7DE
:100E200039FA03994968FFF7F4F92946FFF79CF965
:100E30004C4905464860009020898019FFF7DCFA8C
:100E40003946FFF727FA0746A0888019FFF7D4FA3A
:100E50004349FFF71FFA03998968FFF7DAF9394622
:100E6000FFF7D3F93F490746886028463E4E3F4D7D
:100E7000B04204DD3146E868FFF776F9E8603C49A6
:100E800000988842E86800D900E00099FFF76CF903
:100E90000146E8603748814200DD02E03648814281
:100EA00000D9E8603146354E8F4203DDF068FFF728
:100EB0005BF9F0602E49F0688F4200D83946FFF7A1
:100EC00053F90146F0602B48814202DC2A488142F6
:100ED00000D9F06020884B210901884202D200200D
:100EE000E860F0601F4C00980C346168FFF78DF9E2
:100EF000A968FFF792F90290E9686868FFF78DF931
:100F0000019028680099FFF788F90199FFF72CF9FB
:100F10000299FFF729F928613846A168FFF775F9AA
:100F2000B168FFF77AF90546F1687068FFF775F95F
:100F3000019039463068FFF770F90199FFF714F90D
:100F40002946FFF711F930610098A760606005B08D
:100F5000F0BD00002DFAFFFFDC0500000000C842D4
:100F6000000050419001002000002041400100207D
:100F7000000020C100007A4400007AC42C01002047
:100F8000F7B507460C464888A94988B04018C728D5
:100F900001D2A8486080A089BB21C900401A092855
:100FA00001D2081DA081A4497868FFF736F90146EF
:100FB000A24801220069D2075040FFF726F9A04D50
:100FC000064668609C493868FFF727F99D4909691A
:100FD000FFF71FF9A8600546A07BC1079A48A189C1
:100FE0000ED00818FFF708FA9849FFF753F9009058
:100FF0009749B868FFF711F90099FFF706F91AE069
:101000000818FFF7F9F99349FFF744F900908A4966
:10101000B868FFF702F9074661888648401AFFF76B
:10102000EBF90021C943FFF773F93946FFF7EDF8F3
:101030000099FFF799F88249874F086085488642F2
:1010400004DD8449F868FFF78FF8F860834886422A
:10105000F86801D9814900E03146FFF785F8F8606A
:101060007D48C2687E48824201DD7B4903E07D48BD
:101070007949824200D9C86076497B4F8D4203DDB1
:10108000F868FFF771F8F8607449F8688D4200D885
:101090002946FFF769F8F8607348C26870488242D1
:1010A00001DD714903E06F486F49824200D9C86091
:1010B00063486E4F01680491F868FFF755F8684976
:1010C000F860884202DD3846C16004E06549674A3D
:1010D000884200D9D16021884B200001814202D290
:1010E00062480021C160564F30460C377968FFF7DF
:1010F0008CF859498968FFF790F800905648C16804
:101100004068FFF78AF80590534831460068FFF7BA
:1011100084F80599FFF728F80099FFF725F84E495C
:10112000086101902846B968FFF76FF84E49896851
:10113000FFF773F806904C48C1684068FFF76DF8F8
:101140000790494829460068FFF767F80799FFF7B5
:101150000BF80699FFF708F84349086105903968CC
:101160000498FFF752F841498968FFF756F806904E
:101170003E48C1684068FFF750F800903B4804992A
:101180000068FFF74AF80099FEF7EEFF0699FEF7B0
:10119000EBFF3649086100907E60BD6004983860BE
:1011A00020884B210901884202D90A9900290AD0D6
:1011B000002635463446334622462946304603F05B
:1011C000C7FA0BB0F0BD2A494018FFF715F90446DD
:1011D0000599FEF7C9FF05460199FEF7C5FF00997D
:1011E000FFF713F8FFF71AF906B228460199FFF73F
:1011F0000CF80099FEF7B8FFFFF710F905B220468A
:101200000599FFF702F807460199FEF7ADFF00992F
:10121000FEF7AAFFFFF702F904B238460199FEF77C
:10122000F4FF0099FEF7F1FFFFF7F8F803B2C3E708
:1012300087FAFFFFDC050000E12E65424001002037
:10124000A80100202C01002024FAFFFF0000C84262
:10125000E12E65C20000484268010020000048C23B
:1012600000409C4500409CC5540100207C010020AA
:10127000E6FBFFFF10B5024801F0CAF810BD000000
:101280002402002010B50446007814210838FEF727
:101290002FFF216C064A8908890089186164044976
:1012A0008031A1641C21084001218140E16410BD0E
:1012B000000802400179074B8A00D2180265054AEE
:1012C0004432491E42658A07920F0121914081658F
:1012D00070470000FC080240F0B5846CC56C656086
:1012E000046D002C02D0446D856D65600B4C656803
:1012F000066C1C273E400127B7403D4365600468EB
:1013000063608368102B036803D099600068C26033
:10131000F0BD9A600068C160F0BD000000000240AE
:101320000022064B06E00021491C89B29942FBD3FA
:10133000521C92B28242F6D3704700003421000062
:101340000149012048707047180000200149012020
:10135000087070471800002010B500F0C5F900F0C3
:101360001FF800F03BF800F057F80C4C2146E08BDA
:10137000123900F015FA2046123800880F280BD0D9
:10138000012080F31088E08B0F2100F059FA002033
:1013900080F3108803F008FA10BD0000560000200A
:1013A00010B50D4C21462088123900F0F9F921467C
:1013B0006088103900F0F4F92146A0880E3900F059
:1013C000EFF9204612380288811D0A8042884A803F
:1013D0008088888010BD00005600002010B50D4C9C
:1013E0002146E088123900F0DBF9214620891039C6
:1013F00000F0D6F9214660890E3900F0D1F9204677
:1014000012380288A11F0A8042884A80808888801A
:1014100010BD000056000020F8B5394C2146A089C7
:10142000123900F0BDF92146E089103900F0B8F911
:101430002146208A0E3900F0B3F92546123D28884E
:10144000FEF7E5FF2F49FEF725FF2F4E3060009095
:101450006888FEF7DCFF2D49FEF71CFF0746706029
:10146000A888FEF7D4FFB0603246143A0099906025
:1014700082C2608A294600F093F9A08AA91C00F074
:101480008FF9E08A291D00F08BF92888FEF7BFFF4D
:101490001C49FEF7FFFE2836306000906888FEF792
:1014A000B6FF1A49FEF7F6FE07467060A888FEF7F9
:1014B000AEFFB0603246143A0099906082C2208B31
:1014C000294600F06DF9608BA91C00F069F9A08B2A
:1014D000291D00F065F92888FEF799FF0949FEF7F4
:1014E000D9FE3446143420606888FEF790FF07491F
:1014F000FEF7D0FE6060A888FEF789FFA060F8BD07
:1015000056000020000020414001002000007A44E5
:1015100070B5012080F31088094C25460C352188D0
:10152000288800F08DF96188688800F089F9A18821
:10153000A88800F085F9002080F3108870BD0000B5
:101540004A00002070B5012080F31088084CA51DCA
:101550002188E88800F074F96188288900F070F922
:10156000A188688900F06CF9002080F3108870BDB4
:1015700050000020F8B5012080F31088334D344925
:101580002868FEF74AFEFEF749FF324C86B22680F5
:1015900031496868FEF741FEFEF740FF6080A868A9
:1015A000FEF73CFF2546A0801235A889314600F0A1
:1015B00047F9E889618800F043F9288AA18800F09A
:1015C0003FF9224E224928363068FEF726FEFEF704
:1015D00025FF87B2278020497068FEF71EFEFEF7C0
:1015E0001DFF6080B068FEF719FFA080688A394649
:1015F00000F026F9A88A618800F022F9E88AA1881B
:1016000000F01EF9143612493068FEF706FEFEF7A8
:1016100005FF87B2278010497068FEF7FEFDFEF7D0
:10162000FDFE6080B068FEF7F9FEA080288B394689
:1016300000F006F9688B618800F002F9A88BA18898
:1016400000F0FEF8002080F31088F8BD4001002073
:10165000000020414400002000007A440E490A881E
:101660000E49098800280DD0012813D10C48002903
:1016700002D0002A03D009E082420BD008E0814268
:1016800006D007E0002A05D0002901D0AB20704722
:101690000120704700207047000001080008010881
:1016A000EEEE000070B50E4C0C4D21460839204678
:1016B000656000F0A1FF00280ED1002213462946E4
:1016C000012000F0D9FF002806D1064821466060BD
:1016D0000839204600F090FF70BD000000000108AE
:1016E0000C0000200008010810B504F035F804468D
:1016F00002F022FC204610BDF3B5002681B00F4653
:10170000224C3046FFF7AAFF2149012803D00028C8
:1017100004D0AB20FEBD25460C4600E00D461D4A18
:1017200000232946012000F0A7FF0028F2D102F093
:1017300003FC3946019800F055F80028EAD1164913
:101740007700C85B019A90420CD0144900F028F849
:10175000012807D010481149C05B098800F042F801
:101760000028D7D1761CB6B2102EE8D30B480C3027
:1017700001460839446000F03FFF0028CAD100222A
:1017800013462946012000F077FFFEBD0000010846
:1017900000080108EEEE00005600002000000020C6
:1017A000F8B506460D4601240C4F0020FFF756FF02
:1017B000AB2812D00A49C002C0198A68801C921E48
:1017C00008E01188B14204D1403AD08F288000242B
:1017D00002E0121F8242F4D82046F8BD0000010842
:1017E0000000002070B506460D460120FFF736FFC9
:1017F000AB280DD01049C002104C4118A06804E07D
:101800000268521C05D0001DA0608842F8D38020D9
:1018100070BD01462A460023012000F02DFF00285C
:10182000F6D1A168324600230120891C00F024FF74
:10183000A168091DA16070BDFE070108000000201D
:1018400070B50C460546FFF7CDFF802803D1214631
:101850002846FFF751FF70BD7047000002484169FC
:10186000024A114341617047002002400400010018
:10187000054A5169FF23F9339943C00008430349DE
:101880000843506170470000002002400200010040
:1018900030B505494C6901252C434C610260BFF30A
:1018A0006F8F436030BD00000020024030B50B4C0C
:1018B000002362690125AD042A436261EFF31082BF
:1018C00072B620C95B1C20C0DBB2402BF9D3206963
:1018D000C003FCD482F3108830BD00000020024019
:1018E00070B5054600F0ACFF4619174C03E000F058
:1018F000A7FFB0421FD22069C043C003F7D52169BA
:1019000012480140401C2061A2690120800702406A
:1019100003D0A0691043A0611143002903D00C48F3
:101920004160012070BD00F08BFF451905E000F01B
:1019300087FFA84201D3032070BD2069C043400344
:10194000F5D5002070BD000000200240FA830000A1
:10195000AC03002010B50B4881684A000A495208C0
:101960008A4204DC406840004008884208DD0023C9
:101970001A461946184602F0EBFE04490120087089
:1019800010BD0000200100200000A0428E000020B9
:1019900010B502460020D37801469B1C04E0541881
:1019A000E4786040491CC9B29942F8D310BD0000E8
:1019B000F0B5304C85B0E168074608460391FEF764
:1019C0002CFC0490A16802910846FEF726FC616891
:1019D000064608460191FEF720FC216805460846A8
:1019E0000091FEF71AFC2946FEF70FFC3146FEF780
:1019F0000CFC0499FEF7B8FBFEF73DFD05460E46CC
:101A000003990298FEF709FC029001990098FEF7ED
:101A100004FC0299FEF7A8FB0121FEF779FCFEF712
:101A20002AFD2A46334604F02DFA0126760732466F
:101A3000114BFEF779FCFEF732FDB860E168606893
:101A4000FEF7EBFB0546A1682068FEF7E6FB29469A
:101A5000FEF7DBFB0121FEF75BFCFEF70CFD03F05C
:101A6000C9FF3246054BFEF75FFCFEF718FD7860B4
:101A700005B0F0BDB0000020DCA54CC0DCA54C409A
:101A800070B5054600200C46285EFEF7B5FC0B4EEF
:101A90003146FEF7C2FB20600220285EFEF7ACFC58
:101AA0003146FEF7BAFB60600420285EFEF7A4FC16
:101AB0003146FEF7B2FBA06070BD000089A18B3AF1
:101AC000F0B51C4E1B4F36788C46B6460188760022
:101AD000BF1CB95341883F1D0024B9538088391D6C
:101AE00088532346224625463E1F6800315E6D1C02
:101AF0000C19395EEDB2CB180E490A31085E821816
:101B0000022DF2D3E00F0019401061460880D80F73
:101B1000C01840104880D00F80184010888071464F
:101B2000491C0448C9B20170022901D10021017089
:101B3000F0BD000094000020F8B50646044640368B
:101B4000307D0D46012807D001273775206802F047
:101B5000D2FA002802D029E00220F8BD01229449DF
:101B6000D20528685310884232D16868801A0DD097
:101B7000984208D17F22A868D2049043032292059C
:101B80008218206804E00022206801E0894A206869
:101B900002F0BEFAA06D012109048843A0658021EE
:101BA0002068EBE00A4300E08A43426080482A68EC
:101BB0008242286970D12368D968DB68C906890F19
:101BC000490088406969DB069B0F5B009940DEE0B5
:101BD0006968891A70D099420BD177498842216887
:101BE0005BD180310A6AA868430305D0C3074ED190
:101BF00005E000222368ABE04000C00E48E0830708
:101C000001D5012044E0430701D5022040E003074D
:101C100001D503203CE0C30601D5042038E083064B
:101C200001D5052034E0430601D5062030E0030647
:101C300001D507202CE0C30501D5082028E0830545
:101C400001D5092024E0430501D50A2020E0030541
:101C500001D50B201CE0C30401D50C2018E083043F
:101C600001D50D2014E0430401D50E2010E003043B
:101C700001D50F200CE0C30301D5102008E0830339
:101C800001D5112004E0400301D5122000E000201E
:101C900087403A430A625FE078E080314A6AA86888
:101CA000430302D0C3074CD102E04000C00E49E01C
:101CB000830702D5012045E048E0430701D5022013
:101CC00040E0030701D503203CE0C30601D5042012
:101CD00038E0830601D5052034E0430601D506200F
:101CE00030E0030601D507202CE0C30501D508200C
:101CF00028E0830501D5092024E0430501D50A2009
:101D000020E0030501D50B201CE0C30401D50C2005
:101D100018E0830401D50D2014E0430401D50E2002
:101D200010E0030401D50F200CE0C30301D51020FF
:101D300008E0830301D5112004E0400301D51220FF
:101D400000E0002087403A434A6205E0194A2368D0
:101D50000146184602F0DCF9174829688142A06D57
:101D600006D1012149048843A0654912206805E095
:101D7000012189048843A065206849120160287BFD
:101D800001282068426800D00EE70BE769699202DB
:101D90002368940FD20FA2189200D218136A074C2E
:101DA0000004234008430343136200203075F8BD4C
:101DB0000000C07CFFFF8700FFFF170000F000F06D
:101DC000F8B500270646044640360097307D0D469C
:101DD00001280FD001203075206802F08CF900280E
:101DE0000AD0A06D20210843A0650127002030758E
:101DF0003846F8BD0220F8BD686802287ED001226E
:101E00002169D207914202D0121D914206D1206869
:101E10002968826A4903490B0A436EE0C206D20E62
:101E20000F20216E904081432868430302D0C307EE
:101E30004BD102E04000C00E48E0830701D50120ED
:101E400044E0430701D5022040E0030701D5032009
:101E50003CE0C30601D5042038E0830601D5052007
:101E600034E0430601D5062030E0030601D5072003
:101E70002CE0C30501D5082028E0830501D5092001
:101E800024E0430501D50A2020E0030501D50B20FD
:101E90001CE0C30401D50C2018E0830401D50D20FB
:101EA00014E0430401D50E2010E0030401D50F20F7
:101EB0000CE0C30301D5102008E0830301D51120F5
:101EC00004E0400301D5122000E0002090400143CF
:101ED00021666968E2698808401C904210D8206831
:101EE0002B68826A9C46C906C90E0F238B409A4311
:101EF00063469B001B0F8B401A4300E038E0826270
:101F00002168AB6828684A69000282431840400192
:101F1000400902434A612868002800DB66E7294A35
:101F2000116807239B051940274B984211D10B02DA
:101F30000FD4C0020143104602F002F9244823499D
:101F40000068FEF7D5F800E0401E00900028FBD1A5
:101F50004CE7204B984203D1CB0101D4800205E02D
:101F60001D4B9842DAD14802D8D45802014325E0EB
:101F700001212069C907884202D0091D884206D183
:101F800020682968826A4903490B8A43826228686B
:101F90000028C3DA0B4A116807239B0519400A4B36
:101FA000984201D1C00208E00A4B984201D1800258
:101FB00003E0094B9842B1D140028143104602F040
:101FC000BFF813E708270140001000B0400D0300E0
:101FD000E0000020004000B8002000B40448FF22C8
:101FE00001684B325143090BC91E01607047000064
:101FF000A800002070477047F0B5002685B0044661
:10200000029601960096002803D0A06D002803D008
:1020100009E0012005B0F0BD204600F015F90020D0
:10202000E0655421085520688168C900C90F11D1A5
:1020300081687D4A114001221207114381607C486A
:102040007A490068FEF754F8400000E0401E009016
:102050000028FBD1206881680127C900C90F002929
:1020600007D1A16D10221143A165E16D3943E165EE
:10207000012602F040F8A16DC90601D4002804D061
:10208000A06D10210843A065CAE0A06DFF210131B9
:10209000884302210843A065206802F028F8002840
:1020A00022D12168C86818229043A2681043C860F2
:1020B00020680169626889008908920F92071143BC
:1020C000016103216068890788420DD04942884236
:1020D0000AD04900884207D056498A680F239B04DA
:1020E0009A43184002438A60207EA27E8503607E68
:1020F000C003054350030543206B002801D0012095
:1021000000030543E06805432069002802DA400027
:10211000400801E001204005214605432031087BAD
:1021200040000543029805430878012808D1002A99
:102130001DD0A06D20221043A065E06D3843E065FE
:10214000606A002806D0FF23C1331840A26A2843E2
:1021500002431546626C206CE36C1043A26C097F4D
:102160001A431043019A1043012904D004E00120CE
:1021700000040543E4E738432168CA682E4B1A403F
:102180002A43CA6021680A692C4B1A4002430A613B
:102190000021626B206801F0DAFF2949A26B2068F8
:1021A00001F0D5FF206900282AD001214905884285
:1021B00018D1216E002082000B46D340DA4312076B
:1021C00002D0401C0828F6D3012819D02068826A62
:1021D000227F9200121FD3060F22DB0ED2439A40B9
:1021E0000A4382622068C06816490840A8420ED19E
:1021F0000020E065A06D80088000401CA06510E014
:102200002068816A0F22D24311438162EAE7A06D00
:102210000221884310210843A065E06D3843E06542
:1022200001263046F6E60000E8FFFF7F400D030080
:10223000E0000020002701401902FEFF02FCFFDF42
:1022400004FFFF07E7FF3F83F0B587B00546142181
:102250006846FDF77EFF1D492868884234D11C4836
:102260000268012109050A430260006808400590E0
:1022700017484038416B012211434163406B2026CF
:102280001040009605900320019000270520694624
:102290000297000700F034FA0F4C0E482060A76048
:1022A0000520E76060608020206140006061276257
:1022B0008000E661A061204600F006F9002801D008
:1022C000FFF7CAFA2C65A56207B0F0BD00240140F3
:1022D000401002400800024024020020F7B50446E6
:1022E000006801F008FF002845D125464035287DCB
:1022F000012840D001272F752068C1681F4EC907EB
:102300000CD101F0F4FE002804D02068816831402F
:10231000891C81602068C1683943C1602046FEF78E
:10232000E9FB002826D1A06D15490840FF210131A5
:102330000843A0650020E065226D1249D162226D3C
:1023400011491163226D1149516322681C211160EA
:102350002875206841681022114341602168206D72
:102360004031029B019A00F0FFF821688A683240F0
:10237000121D8A60FEBD0220FEBD0000E8FFFF7F47
:10238000FEF1FFFF510A0008EB0A0008D10A00081D
:10239000F8B501460024203101220A714B79022B45
:1023A00003D00421C16301242DE003681D680E26BB
:1023B000B5431D6003681D686D086D001D60436CAA
:1023C0001D68FF260136B5431D60104B5D68066C25
:1023D0001C273E401746B7403D435D60836CC56C8B
:1023E0005D60036D002B07D01E68FF250135AE43ED
:1023F0001E60436D856D5D604A7100220A71816BBC
:10240000002900D088472046F8BD000000000240A7
:10241000F0B42C490C6802681368056C1C273D4019
:102420000426AE40264211D05E070FD513689B06E6
:1024300003D4146804239C4314604B68046C042286
:102440003C40A24013434B60016B1CE00227AF40AD
:10245000064627402036002F19D09F0717D513684E
:102460009B0605D413680A24A343136001227271EA
:102470004B68046C1C2214400222A24013434B60A0
:1024800000213171C16A00291AD0F0BC0847082721
:10249000AF40274214D01B0712D513680E24A34364
:1024A00013604B68046C1C22144001221546A540A1
:1024B0002B434B60C263727100213171416BE2E7C3
:1024C000F0BC70470000024070B504003DD02448C5
:1024D000256814212818FDF70BFE800020640220D7
:1024E00026462036707128681E4908402860E16839
:1024F000A06862690843216911430843A169084340
:10250000E1690843216A084321680A6810430860AA
:102510002046FEF7B7FE0121A06889030025884206
:1025200000D16560616C20790860A06CE16C41604D
:102530006068401E03280AD82046FEF7BBFE206DC7
:102540000560606DA16D416004E0012070BD2565EE
:102550006565A565E563012070713571002070BD6A
:10256000F8FFFDBF0F80FFFFF8B505460446203594
:10257000287900278C4601280AD001202871687923
:102580000026012806D02E7102272E713846F8BD8C
:102590000220F8BD02206871E663206801684908DE
:1025A0004900016061462046FEF796FE206B002838
:1025B0002068016801D00E2205E0042291430160E9
:1025C000206801680A2211430160606C0168CA0337
:1025D000084902D502680A430260206D002802D033
:1025E00002680A4302602068016801221143016009
:1025F000CBE7000000010000F8B51D4D0646287825
:102600000F4601280AD001202870002068607D2034
:10261000C000FFF765F9002802D026E00220F8BDCF
:102620003168042904D00021C9433960746812E07C
:10263000FFF714F97D20C000FFF752F915E020469E
:10264000FFF716F97D20C000FFF74AF9002801D0F6
:102650003C6005E0641CB26871688918A142EED83C
:1026600004494A6902239A434A6100212970F8BD4E
:10267000AC03002000200240F0B51FB4144C064605
:102680002078154601280AD00120207000277D20DF
:10269000C0006760FFF724F9002803D010E0022093
:1026A00005B0F0BD012E0DD029460198FFF7FEF8C8
:1026B0007D20C000FFF714F906494A69B2434A6118
:1026C0002770EDE72A46039B0198FFF7E1F8EFE753
:1026D000AC03002000200240064900204A69002A7D
:1026E00007DA054A8A60054A8A604969002900DAE2
:1026F000012070470020024023016745AB89EFCDE0
:10270000F0B5002388E001229A409446144022004C
:102710007ED04C68022C01D0122C0CD1DC08A40015
:1027200027183C6A5D07ED0E0F26AE40B4430E69D4
:10273000AE4026433E6205685E000324B4400F7934
:10274000A543BF07BF0FB7402F4307604D68012D5A
:1027500005D0022D03D0112D01D0122D0ED1856888
:10276000CF68A543B7402F43876047686546AF43AE
:102770000D79ED06ED0F9D403D434560C568A543CD
:102780008C68B4402C43C4604C68E40043D59D0879
:10279000244CAD002F193C6E9D07EE0E0F25B54061
:1027A000AC4305252D07A84201D100250FE01E4DA1
:1027B000A84201D101250AE01C4DA84201D1022501
:1027C00005E01B4DA84201D1032500E00525B540D9
:1027D0002543144C3D66134D80352E684F68964353
:1027E000FF0300D516432E606E684F689643BF0303
:1027F00000D516436E6025684E689543F60200D5F5
:102800001543256065684E689543B60202D500E021
:1028100001E0154365605B1C0A681446DA4000D08D
:1028200071E7F0BD0018024000040050000800509D
:10283000000C0050002A01D081617047816270470E
:102840000148806870470000E40000200248816869
:102850004268891881607047E400002010B508487C
:1028600000240168821511430160204600F00AF837
:10287000002801D0012401E000F028F8204610BD16
:102880000020024070B50F4E0024716805460029F3
:1028900015D07D20C000FDF72BFC01460A480068DA
:1028A000FDF726FC00F0FAFB002808D1042D06D223
:1028B00000222946401E00F02BF8356000E001247C
:1028C000204670BDE4000020E000002008B5094863
:1028D0000168012211430160006810400090054822
:1028E0004038C26B01040A43C263C06B08400090C9
:1028F00008BD000040100240002805DBC106C90EDB
:1029000001208840014908607047000000E100E0B4
:1029100010B502F0C5FF10BD10B50F4C21680322A1
:102920005202914301432160C11FFF39FA390ED190
:102930000A480621006848430949FDF7D9FB401CB5
:1029400002E0002805D0401E61694905F9D4002045
:1029500010BD032010BD000000700040E00000200A
:1029600040420F00F8B50446006800264D4D800334
:1029700058D54C4800274038C06BC00009D449489E
:102980004038C26B01040A43C263C06B0840012790
:10299000009045480168821511430160FFF750FF20
:1029A000009005E0FFF74CFF0099401A022825D857
:1029B0003D480068C005F5D5E869032109020840D3
:1029C0000FD0616981420CD0E86903210902EA69EC
:1029D0008843012109040A43EA61EA698A43EA61FA
:1029E000E861C0070FD0FFF72BFF009008E0FFF76A
:1029F00027FF0099411A2D48814201D9032609E099
:102A0000E8698007F3D5E869032109028843616911
:102A10000843E861002F05D022484038C26B01040A
:102A20008A43C2632078C00705D06869616880085E
:102A30008000084368612078400606D56869032154
:102A400009038843A168084368612088400411D5C0
:102A50006869216980008008084368610121206954
:102A60008907884206D10F484038C1680122120404
:102A70001143C1602088000512D5686903218903CC
:102A80008843E168084368610121E068890388425E
:102A900006D104484038C168012212041143C160C4
:102AA0003046F8BD4010024000700040881300001E
:102AB000F8B50F46060043D04D4D28684007400F3B
:102AC000B84213D22868C008C00038432860FFF716
:102AD000B7FE044605E0FFF7B3FE011B45488142FF
:102AE00061D828684007400FB842F4D13068424CA2
:102AF00081070DD5400704D5A068072109030843C5
:102B0000A060A0680F2109028843B1680843A06053
:102B10003078C00732D0706801280AD002280BD064
:102B200000280FD03449403103280ED0C9698907E5
:102B300004E02168890301E021688901002906DB9E
:102B40000120F8BD21684905F8E7096AEFE7A168A7
:102B5000C908C9000143A160FFF772FE009006E0BA
:102B6000FFF76EFE0099411A224881421BD8A068E7
:102B7000382108407168C9008842F1D128684007AF
:102B8000400FB84217D91A480168C908C90039432B
:102B90000160FFF755FE054607E0FFF751FE411BB8
:102BA0001448814201D90320F8BD1148006840074C
:102BB000400FB842F1D13078400706D5A068072110
:102BC00009038843F1680843A06000F031F8A16868
:102BD0003C2289091140094A515CC906C90EC84006
:102BE0000749086007480068FFF74CFEF8BD000081
:102BF000002002408813000000100240E860000836
:102C0000E0000020E40000200648074900688968C9
:102C1000064A4904490F8900515CC906C90EC840DB
:102C200070470000E000002000100240286100080A
:102C300010B5204CA068204A8006400F16D0A0682E
:102C40008006410F501001290FD0A1688906490F55
:102C5000022912D0A0688006400F042823D0A06863
:102C60008006400F032821D0002010BD20680121DC
:102C70008004400F8140104612E0E1688B07E16854
:102C80009B0F4906490F491C032B00D01046FDF746
:102C90002FFAE1684904490E4843E168490F491C8D
:102CA000FDF726FA10BD0120C00310BD7D200002F3
:102CB00010BD0000001002400024F400F8B504002C
:102CC0007ED020783827C007EB4D002846D0A86872
:102CD000E96838408907890F102802D008280BD0EE
:102CE00001E0032908D001206268000482420AD171
:102CF00029680143296015E0286880032ED56068A3
:102D00000028DDD02AE0052301211B0489049A4212
:102D10002A6802D10A432A60EAE782432A602868C7
:102D200088432860606800280CD0FFF789FD0646BC
:102D300004E0FFF785FD801B642873D828688003B2
:102D4000F7D50BE0FFF77CFD064604E0FFF778FDC2
:102D5000801B6428F1D828688003F7D42078800786
:102D600069D5A868E96838408A070721920FC90227
:102D7000102802D0002813D001E0022A10D0E06809
:102D8000002846D0286888432169084328602868BD
:102D9000FF21013108432860FFF752FD06462CE071
:102DA0002A68520502D5E268002A89D06A687F2322
:102DB0001B029A4363691B021A436A60002800E001
:102DC0008DE00ED12868884321690843286028686F
:102DD00001218004400F8140A848FDF789F9A849E6
:102DE0000860A8480068FFF74DFD002877D122E071
:102DF000FFF726FD801B02289FD828684005F7D5DD
:102E000068687F2109028843616909020843686094
:102E100011E02968FF20013081432960FFF710FD90
:102E2000064605E098E0FFF70BFD801B022884D8DA
:102E300028684005F7D42078934E00072ED5A8685F
:102E40008006400F03280AD0A0690028306A16D0F7
:102E5000012108433062FFF7F3FC07460BE0306ABC
:102E600080071BD5A06900289FD017E0FFF7E8FC7A
:102E7000C01B022870D8306A8007F7D50EE04008E2
:102E800040003062FFF7DCFC074604E0FFF7D8FCA7
:102E9000C01B022860D8306A8007F7D4207840072A
:102EA0006CD5A86800278006400F042818D0E86B6E
:102EB000C00008D4E96B012000070143E963E96B16
:102EC00001400127009171480168C90519D40168C2
:102ED000821511430160FFF7B3FC00900DE083E021
:102EE000F06980074AD5A06800287DD046E0FFF74A
:102EF000A7FC0099401A02282ED864480068C00533
:102F0000F5D5A168012910D004200529F16911D057
:102F100049084900F161F1698143F161A068002825
:102F200016D0FFF78DFC00900EE0F06901210843F8
:102F3000F061F3E70143F161F7E7FFF781FC0099E6
:102F4000411A534881426DD8F0698007F5D50EE0EB
:102F5000FFF776FC009007E064E0FFF771FC009952
:102F6000411A4B4881425DD8F0698007F5D4002FA3
:102F700004D0E96B012000078143E963E069002880
:102F800077D0A9688906490F022951D00126360653
:102F9000022828680DD0B0432860E86880088000C7
:102FA000E860E8683B490840E860FFF749FC0446F0
:102FB0003AE0B0432860FFF743FC074604E0FFF720
:102FC0003FFCC01B02282DD828688001F7D4616A15
:102FD000206AA26A0843E16A120211430843216B86
:102FE0000843E9682C4A00E041E011400843E860EA
:102FF000286830432860E868012109070843E86031
:10300000FFF71EFC044604E0FFF71AFC001B022831
:1030100008D828688001F7D52BE0FFF711FC001BCA
:10302000022801D90320F8BD28688001F5D420E0EA
:103030000128F8D0E868226A8107890F914216D1E9
:103040007021626A0140914211D17F21A26A090276
:103050000140120291420AD11F214904E26A014053
:10306000914204D1400F216B4007884201D00120DA
:10307000F8BD0020F8BD0000001002400024F4005C
:10308000E0000020E40000204010024000700040FA
:1030900088130000FFFFFEEF8C80C11F094910B5A7
:1030A000401E884201D9012010BD074C60610321F8
:1030B000081F02F0F5FB0020A0610720206100201E
:1030C00010BD0000FFFFFF0000E000E07047704708
:1030D0007047000070B5034620331A7F012A4BD099
:1030E00001221A770325CA682D02AA438D68006859
:1030F0002A430125AD02AA434D6800242A43012535
:10310000ED02AA430D682A4301252D03AA430D6948
:103110002A4301256D03AA434D692A430125AD03C6
:10312000AA430D6B2A430F252D04AA430D8B2D04B2
:103130002A43124DA84204D101263607B243CE6974
:103140003243A84214D10F252D05AA430D8D2D051C
:103150002A4301252D06AA430D6A2A4301256D063F
:10316000AA434D6AC96A2A4301256D07AA430A4347
:1031700042641C77002070BD022070BD002C01400D
:10318000F0B5034620331A7F012A1ED001271F778E
:1031900002225A7704686268A5680D4EB44205D1D0
:1031A00016460F22120596434A6832437026B243F0
:1031B0000E6889681643802295432943666000683B
:1031C00081605F7700201877F0BD0220F0BD00001D
:1031D000002C014070B5040005D025462035687FDD
:1031E000002802D006E0012070BD0020287720468C
:1031F00000F00AF802206877211D206801F0BAFD6E
:1032000001206877002070BD08B500681049884229
:1032100008D110480268C1140A43026000680840DF
:10322000009008BD0C498842FBD10A484038C26B67
:1032300002210A43C263C06B00220840009011467D
:103240001020FFF765FB1020FFF756FB08BD0000BC
:10325000002C014040100240000400400168CB688F
:1032600001221343CB6000688168064B1940062990
:1032700005D01304994202D0016811430160002077
:10328000704700000700010070B505460446203570
:10329000287F012817D001262E7702206877226820
:1032A00090682E4B1840FF231B02984390600A68D9
:1032B000502A32D00EDC202A4CD006DC002A49D01D
:1032C000102A3BD146E0022070BD302A42D0402A6D
:1032D00034D137E0602A28D0702A12D001200003B0
:1032E000121A2BD0824229D1CB684A68896820689B
:1032F00001F089FD206881680122920311438160F9
:103300001CE0CB684A688968206801F07CFD216870
:10331000886877221043886010E0CA68496820688E
:1033200001F0FEFE5021206806E0CA684968206866
:1033300001F007FF6021206801F070FD6E7700202A
:10334000287770BDCA684968206801F0E9FE40210D
:103350002068F1E711462068EEE7000088FFCEFF05
:103360007047000070B50446006801690025C94334
:103370008907002915DBC168C943890711D4E91EF3
:10338000016101202077206880698007204602D0F3
:10339000FFF7E6FF04E000F0DFF8204600F08BF9CD
:1033A000257720680169C943490717D4C168C94313
:1033B000490713D40421C943016102202077206802
:1033C00080698005800F204602D0FFF7C9FF04E026
:1033D00000F0C2F8204600F06EF9257720680169F8
:1033E000C943090716D4C168C943090712D4082183
:1033F000C9430161042020772068C0698007204606
:1034000002D0FFF7ADFF04E000F0A6F8204600F080
:1034100052F9257720680169C943C90617D4C168E4
:10342000C943C90613D41021C9430161082020777C
:103430002068C0698005800F204602D0FFF790FF0A
:1034400004E000F089F8204600F035F9257720687F
:103450000169C943C90708D1C168C943C90704D173
:10346000891E0161204600F053F920680169C943B3
:10347000090609D4C168C943090605D48021C94396
:1034800001612046FFF723FE20680169C943C90591
:1034900008D4C168C943090604D412490161204611
:1034A000FFF714FE20680169C943490609D4C168C1
:1034B000C943490605D44021C9430161204600F0B3
:1034C00047F920680169C943890609D4C168C9431D
:1034D000890605D42021C94301612046FFF7F8FD84
:1034E00070BD0000FFFEFFFF70B586B004461421DA
:1034F0006846FCF72EFE15492068884223D11448FF
:10350000416B012631434163416B31400591416B71
:10351000022421434163406B00252040059009208F
:103520000002694631C105206946000703950494ED
:10353000FFF7E6F84820694631C169460548049618
:103540000395FFF7DDF806B070BD0000002C0140C8
:1035500000100240000400507047F8B506460446CB
:103560002036307F0D4601280ED001203077022012
:10357000707708270C2A43D008DC002A0BD0042AD5
:1035800019D0082A77D12BE00220F8BD102A4DD09F
:10359000142A70D15AE0206801F072FC2068816919
:1035A00039438161206881690422914381612068E7
:1035B00081692A6911E0206801F0A0FC2068816916
:1035C0000122D20211438161206881695210914326
:1035D0008161206881692A691202114381614AE090
:1035E000206801F0C9FC2068C1693943C1612068C5
:1035F000C16904229143C1612068C1692A6912E04E
:10360000206801F0F7FC2068C1690122D202114351
:10361000C1612068C269012189028A43C2612068B0
:10362000C1692A6912021143C16124E0206801F0D6
:1036300017FD2068416D394341652068426D0421C2
:103640008A4342652068416D2A6912E0206801F0D2
:1036500035FD2068416D0122D20211434165206889
:10366000426D012189028A4342652068416D2A69C1
:103670001202114341650120707700203077F8BDB8
:1036800070B5040005D025462035687F002802D09B
:1036900006E0012070BD00202877204600F00AF8DF
:1036A00002206877211D206801F064FB0120687703
:1036B000002070BD7047704710B5044600680122B5
:1036C00001F094FB0E482168814205D00D488142EB
:1036D00002D00D48814204D1486C0122D20310432C
:1036E000486420688168094A1140062906D0D21F23
:1036F000914203D00168012211430160002010BDF6
:10370000002C014000440140004801400700010036
:103710000C4900680968884213D10B4800780028DA
:103720000FD00A484168491C41600178491C01706A
:103730004178491C41708178491C8170C178491CCD
:10374000C1707047E0020020CC000020D4000020AF
:10375000704770477047704770470000F8B50368BE
:103760000446DA691868996816072546360F8035C9
:10377000002E60D0584EFF2721370E4007403743B8
:1037800072D0D70706D0C70504D501271F62AB68E2
:103790003B43AB60930708D5CB0706D027680223CD
:1037A0003B62AB6804273B43AB60530708D5CB07AC
:1037B00006D0276804233B62AB6802273B43AB601B
:1037C000130709D520230340334305D02668082377
:1037D0003362AE681E43AE60AB68002B38D09206F1
:1037E0000AD520221040D2051140084304D0E16ED2
:1037F000002901D020468847A868216889684906C1
:1038000001D4000729D5204601F0B8FD2068816861
:1038100049061ED5826840218A438260A06F002835
:1038200017D02E498163A06FFEF7B2FD00280FD09C
:10383000A06F816B0BE0960616D5012720263F0767
:1038400006400F403E430FD0E16E22E020468847FD
:10385000F8BD2046FFF780FFF8BD2046FFF77CFF4C
:103860000020A860F8BDFFE7D60208D54E0206D5B5
:103870000120000518622046FFF76DFFF2E71606EB
:103880000AD501278026FF05064039400E4303D0A4
:10389000216F0029DAD1E5E751060DD541060BD598
:1038A0001A68204640218A431A602021296000219D
:1038B000216700F0F3F8D5E7110205D5410003D5E3
:1038C0002046FFF747FFCDE7D101CBD50028C9DA65
:1038D0002046FFF73EFFC5E70100001069530008CE
:1038E00070B5040006D020468030054600680028E8
:1038F00002D007E0012070BD00217C200155204648
:1039000000F026F824202860206801684908490052
:103910000160204601F046FD0128ECD0A06A002895
:1039200002D0204601F088FC206841680922D202BA
:1039300091434160206881682A2291438160206818
:103940000168012211430160204601F0DBFC70BDDB
:1039500010B586B0044614216846FCF7FAFB1549F9
:103960002068884224D11448C26B012149040A43CB
:10397000C263C26B0A400592426B01210A43426353
:10398000406B0491084005900C20009002200190AB
:10399000002002900390052069460007FEF7B0FE64
:1039A000002201211C20FEF7B3FF1C20FEF7A4FF1C
:1039B00006B010BD0044004000100240FFB50746AD
:1039C00004468037386885B00D46202864D1002D24
:1039D0000CD00798002809D00120A168000381427B
:1039E00007D12069002804D1E80702D0012009B0DE
:1039F000F0BD204660300290007F01284CD0029834
:103A0000012101770020B86021203860FEF718FFFF
:103A10000190264640360798B0820798F082012030
:103A2000A1680003814202D12069002802D00395D9
:103A3000002515E00020039012E00022802120469E
:103A400001F020FE002818D10398002817D0216823
:103A5000007888620398401C0390F08A401EF08230
:103A6000F08A019B002808980090E6D100224021AE
:103A7000204601F007FE002808D00320B7E7288879
:103A80002168C005C00D8862AD1CE6E720203860C3
:103A9000029900200877AAE70220A8E77047FEE70E
:103AA000FF210A48013181620422521EFDD1802289
:103AB00082610322521EFDD181610322521EFDD17B
:103AC00081620320401EFDD17047000000040050B9
:103AD00010B508210020104B80229A6104224C016D
:103AE000521EFDD10EE00322521EFDD100BF9C618B
:103AF0000322521EFDD140061A69000E120601D59E
:103B0000012210430A46491EC9B2002A9C62EAD12A
:103B10000321491EFDD110BD00040050FF230F48B2
:103B2000013383620421491EFDD18021816103227A
:103B3000521EFDD183610322521EFDD102698162B2
:103B40000322521EFDD10269120601D500207047E2
:103B500081620320401EFDD1012070470004005007
:103B6000FF230A48013383620421491EFDD18022CC
:103B700082620321491EFDD183610321491EFDD1CB
:103B800082610320401EFDD17047000000040050F8
:103B9000FF210E48013181620422521EFDD1802294
:103BA00082610322521EFDD181610322521EFDD18A
:103BB00002698162120603D50320401EFDD17047C1
:103BC0000320401EFDD1012070470000000400507A
:103BD00030B50822802554010F4913E003235B1EF2
:103BE000FDD1030604D58D6103235B1EFDD103E0E7
:103BF0008D6203235B1EFDD14006000E8C61032302
:103C00005B1EFDD11346521ED2B2002B8C62E5D151
:103C10000320401EFDD130BD00040050FFB5C04C54
:103C20008DB0206803906568A0680190E0681799DE
:103C300000900846FCF7F1FA169907460846FCF78B
:103C4000ECFA109906460846FCF7E7FA3146FCF70D
:103C50008BFA3946FCF788FA02F0D0F9064601469D
:103C60001098FCF7DAFA109031461698FCF7D5FA5E
:103C7000169031461798FCF7D0FA1790A168059175
:103C800020680790FCF7C9FA0990E16860680F4660
:103C90000646FCF7C2FA0999FCF7B7FA0121FCF7CE
:103CA00037FB0A9039460598FCF7B7FA0990314678
:103CB0000798FCF7B2FA0999FCF756FA0121FCF7CC
:103CC00027FB394608900846FCF7A7FA05990690A5
:103CD0000846FCF7A2FA074631460846FCF79DFA6B
:103CE000079906460846FCF798FA3146FCF78DFA24
:103CF0003946FCF78AFA0699FCF736FA064608991F
:103D00001798FCF78AFA074631461698FCF785FAA9
:103D10003946FCF77AFA099031461098FCF77DFA9B
:103D200006460A991798FCF778FA3146FCF76DFABF
:103D30000B900A991698FCF770FA064608991098A5
:103D4000FCF76BFA3146FCF760FA074675490998AB
:103D5000FCF763FA2169FCF707FA0646206171490E
:103D60000B98FCF75AFA6169FCF7FEF9606106905E
:103D70006C493846FCF751FAA169FCF7F5F9A061E6
:103D8000059009990D98FCF7EFF93146FCF7ECF92D
:103D90000D900B990E98FCF7E7F90699FCF7E4F9FA
:103DA0000E9039460F98FCF7DFF90599FCF7DCF91E
:103DB00001460F900098FCF730FA07460E990198DB
:103DC000FCF72BFA064601212846C90748400D9901
:103DD000FCF723FA3146FCF718FA3946FCF715FAD6
:103DE0005149FCF71AFA0399FCF7BEF920600790D5
:103DF0000E990098FCF711FA07460F990198FCF705
:103E00000CFA064603990D98FCF707FA3146FCF7C1
:103E1000ABF93946FCF7F9F94349FCF7FEF92946B5
:103E2000FCF7A2F96060074600990D98FCF7F5F9D8
:103E3000049028460F99FCF7F0F906460E9903986E
:103E4000FCF7EBF93146FCF7E0F90499FCF78CF943
:103E50003549FCF7E2F90199FCF786F9A0600646BE
:103E600001990D98FCF7D9F9019028460E99FCF7B5
:103E7000D4F905460F990398FCF7CFF92946FCF7CA
:103E800073F90199FCF7C1F92749FCF7C6F90099C4
:103E9000FCF76AF90146E060FCF7BFF93146029091
:103EA0000846FCF7BAF9054639460846FCF7B5F965
:103EB000079906460846FCF7B0F93146FCF754F975
:103EC0002946FCF751F90299FCF74EF902F096F8F1
:103ED000054601462068FCF7A0F920602946606885
:103EE000FCF79BF960602946A068FCF796F9A06092
:103EF0002946E068FCF791F90C49E0600420085E6F
:103F0000FCF77AFA0A49FCF788F90649FCF785F9C3
:103F1000084C2168FCF728F9206011B0F0BD0000C2
:103F2000B00000206F12833A6F12033A880000201D
:103F3000F1FF793D2001002010B50120FDF78EFB37
:103F40000C4A0D49AB2806D0C00282188A600B4A81
:103F50008218886808E00A488860AB2010BD0368B2
:103F60005B1C05D0001D88609042F8D3802010BDF6
:103F7000002010BD0000010800000020FE0701081D
:103F80000058060810B5752000F062FE682801D0C0
:103F9000002010BD00216B2000F080FE104C204658
:103FA000401EFDD10021192000F078FE2046401E61
:103FB000FDD100211A2000F071FE2046401EFDD1E7
:103FC00018211B2000F06AFE2046401EFDD11F2153
:103FD0001C2000F063FE641EFDD1012010BD000016
:103FE0001F4E000010B50B4C012220212046FEF789
:103FF00021FC012210212046FEF71CFC0122402159
:104000000548FEF717FC0122052051020007FEF7C4
:1040100011FC10BD000400500008005010B50C4CFD
:10402000002220212046FEF705FC00221021204618
:10403000FEF700FC002240210648FEF7FBFB0121B1
:104040000520002249020007FEF7F4FB10BD000026
:10405000000400500008005070B5104D104C296845
:10406000A160104926780A8841001046FCF740F804
:1040700021462A4649681268511A002E05D081420D
:104080000BD3FFF7AFFF002004E0814205D3FFF719
:10409000C5FF012020702868606070BDD800002036
:1040A00038000020DC00002010B50024FFF7B6FF28
:1040B000C820FDF735F9FFF795FFC820FDF730F967
:1040C000641CE4B2032CF1D30024FFF7A7FF6420A3
:1040D000FDF726F9FFF786FF6420FDF721F9641C40
:1040E000E4B2032CF1D36420FDF71AF910BD806807
:1040F000C007C00F704780684007C00F7047C06896
:104100000005800F01D0002070470120704700009B
:10411000094B10B5994201D10C3004E08B02DB0F42
:104120009B001818A0300368044C0A400C40A343BD
:104130001343036010BD00000000C07CFFFFC77C7C
:10414000026807239B059A430A430260704710B533
:1041500043690424214007248C40A3438A4013432D
:10416000436110BD10B51C48417802780902114323
:104170004ABA1A490B88D31A194A1380C37884782B
:104180001B0223434C885BBA1B1B53804379047981
:104190001B02234389885BBA591A9180417A027ABB
:1041A000090211434ABA0F490B88D31A0E4A1380E9
:1041B000C37A847A1B0223434C885BBA1B1B53804F
:1041C000437B047B18022043898840BA401A9080C0
:1041D00000F00CF810BD0000F40000204A000020A0
:1041E00076000020500000207C000020F8B53C4CF8
:1041F00000256078002837D0A0783A4E002815D0E6
:10420000401CC2B2A27038496368485FC018606041
:104210000223CB5EA768DB19A36000930423CB5E67
:10422000E1685F18E760FB2A09D01DE035807580E2
:10423000B5806560A5600120E560A070F8BDFA2139
:10424000FBF76CFF3080FA210098FBF767FF708066
:10425000FA213846FBF762FF0121C902401AB080FB
:10426000A5706570FDF754F920780028E6D0E07855
:1042700000282AD0401CC1B2E1701C480022825E96
:104280002369D21822610223C35E66699F19042341
:104290006761C35EA0691E18A661FB29CED1FA2111
:1042A0001046FBF73BFF124CFA2120803846FBF703
:1042B00035FF6080FA213046FBF730FFA0800848C8
:1042C000C5700570FDF73EF9F8BD094805804580C9
:1042D0008580256165610120A561E070F8BD000061
:1042E000180000204A000020760000207C000020FA
:1042F00050000020F8B50E24FFF710FC00281AD05B
:10430000D020FFF765FCFFF743FC002810D03B20CE
:10431000FFF75EFCFFF73CFCFFF700FCD120FFF746
:1043200057FCFFF735FCFF26164F0136164D1CE0F3
:10433000FFF716FC0020F8BDFFF7CAFB0D21091B93
:104340007854AE620320401EFDD100BF8020A862D9
:104350000320401EFDD100BFAE610320401EFDD1F1
:1043600000BFAE620320401EFDD1641E2406240E51
:10437000E2D1FFF7ADFB7873FFF792FBFFF7F0FB9D
:104380000120F8BDF40000200004005010B53B20CF
:1043900000F05EFC174C20703C2000F059FC60706F
:1043A0003D2000F055FCA0703E2000F051FCE07074
:1043B0003F2000F04DFC2071402000F049FC60716E
:1043C000432000F045FC2072442000F041FC607264
:1043D000452000F03DFCA072462000F039FCE07260
:1043E000472000F035FC2073482000F031FC60735A
:1043F00010BD0000F400002010B58AB018216846F6
:10440000FBF7A7FE00241F48069407941C49089454
:1044100001608460C4600905046141600421416158
:10442000047644760122827601462031C2610C7006
:10443000446284620A730463446384630C77C464D3
:10444000FDF7DAFD002801D0FDF706FA032080050C
:10445000019069460B48FDF76FFB002801D0FDF77E
:10446000FBF909480690079406A908940548FDF74A
:10447000A7FC002801D0FDF7EFF90AB010BD00003D
:1044800000240140C00100202000001408B50848A5
:10449000816B012211438163806B104000220090E8
:1044A00011460920FEF734FA0920FEF725FA08BD67
:1044B00000100240F0B587B014216846FBF749FEB2
:1044C0002C48416B012529434163416B29400591EB
:1044D000426B04210A434263426B0A400592426BDD
:1044E00002210A434263406B0E02084005900520FA
:1044F000002231460007FEF79DF9002240211E48A8
:10450000FEF798F9FF27B137002239461B48FEF71E
:1045100091F91B48019000240520694600950294FA
:104520000007FEF7EDF81020009003200190052011
:10453000694602940007FEF7E3F8052002946946F5
:104540000007009601950394FEF7DAF840200090EA
:1045500002946946019503940748FEF7D1F8029446
:1045600069460648009701950394FEF7C9F807B01D
:10457000F0BD000000100240000800500004005090
:104580000000111010B59CB0002419941A941794CF
:104590001894149415941C2168461694FBF7D9FDC1
:1045A000342107A8FBF7D5FD3C483B4901600321B6
:1045B0008460416004613A494461C1608021816145
:1045C000FEF708FE002801D0FDF746F901200003A0
:1045D000179017A93148FEF757FE002801D0FDF7C4
:1045E0003BF92E48FFF74CF8002801D0FDF734F9CD
:1045F0001494159414A929481694FEF7C1FD0028B7
:1046000001D0FDF729F960200594019400900294EF
:10461000039404940022694606942048FEF79DFF07
:10462000002801D0FDF718F9042269461B48FEF75F
:1046300094FF002801D0FDF70FF9082269461748BA
:10464000FEF78BFF002801D0FDF706F90C22694622
:104650001248FEF782FF002801D0FDF7FDF8012087
:10466000079440030C90089409940B9400030A9457
:104670000D940E9410900F941194129407A9139412
:104680000648FEF727FD002801D0FDF7E5F80348AE
:10469000FEF72AFF1CB010BD002C0140A002002034
:1046A000E703000010B588B0002400940194174877
:1046B0000294039404940594134906940160032121
:1046C00084604160046112498461C160FEF782FD2B
:1046D000002801D0FDF7C0F80120000300906946D2
:1046E0000A48FEF7D1FD002801D0FDF7B5F8049483
:1046F00004A906480694FEF743FD002801D0FDF703
:10470000ABF808B010BD000000040040E00200203B
:10471000E703000010B50D480B490160E121490293
:10472000416000218160C16001618161C1610162FC
:104730000C22416242618162FFF7D2F8002801D069
:10474000FDF78AF810BD000000440040200300205F
:1047500010B57D24E400A04201DD204602E00028DF
:1047600000DA0020A14201DD214602E0002900DA42
:104770000021A24201DD224602E0002A00DA0022E6
:10478000A34201DD234602E0002B00DA0023044CA3
:104790006063A163E26302484030036010BD000023
:1047A000002C01407047000010B5FFF737FC0E49A0
:1047B0000E4B41200B4A00064B600A60886014399A
:1047C00088600CC10A4A3431002384011CC120399D
:1047D0001CC11C310860074848608860FCF7CAFEAD
:1047E00010BD0000CDCC9C40400100200AD7A33C66
:1047F0003333B33FCDCCCC3D7047000030B589B0EA
:1048000024206A4610704D2050703E209070062083
:10481000D0706C20154C164D107129466068FBF75E
:10482000FCFCFBF7FBFD6A465071001290712946B3
:10483000A068FBF7F2FCFBF7F1FD6A46D0710012AD
:1048400010722068A9024840FBF7E8FD6A465072E2
:10485000001290726846FDF79BF86A46D0722021DC
:104860006846FCF78BFA09B030BD0000200100203B
:104870000000204170B588B024206A4610704D2099
:1048800050703E2090701720D0700B20107142485D
:10489000424900885071001290714A6B7D20C0001F
:1048A00013186A46D3714A6B1218130A6A461372B8
:1048B0008A6B13186A4653728A6B1218130A6A4677
:1048C0009372CA6B13186A46D372C96B0918090A26
:1048D0001173324940310A6813186A4653730968E4
:1048E0002F4C0818000A2F4D907329462068FBF7BB
:1048F00094FCFBF7ACFD6A462B4ED07331466068E2
:10490000FBF78BFCFBF7A3FD6A461074A068FBF76E
:104910009EFD6A46254C507429462068FBF77DFCB5
:10492000FBF795FD6A46907431466068FBF775FCAD
:10493000FBF78DFD6A46D074A068FBF788FD6A46D8
:104940001B4C107529462068FBF767FCFBF77FFDC1
:104950006A46507531466068FBF75FFCFBF777FDF0
:104960006A469075A068FBF772FD6A46D0751148DB
:1049700000681076010A5176010C9176000ED0760F
:104980006846FDF705F86A46107720216846FCF76F
:10499000F5F908B070BD0000AC000020002C01400B
:1049A000400100200000204100007A4468010020FE
:1049B0007C0100203400002030B589B024206A46F4
:1049C00010704D2050703E2090701220D0706620E4
:1049D000107130490020085E304CC217920F101839
:1049E00080106A465071001290710220085EC21752
:1049F000920F101880106A46D071001210720420B5
:104A0000085EC117890F08188010507200122249E1
:104A100090724888D0720012107308885073001288
:104A2000907388884042D073001210740020205E7A
:104A3000FBF7E2FCFD25AD052946FBF7EEFBFBF796
:104A4000EDFC6A465074001290740220205EFBF761
:104A5000D3FC2946FBF7E1FBFBF7E0FC6A46D07488
:104A6000001210750420205EFBF7C6FC2946FBF7F8
:104A7000D4FBFBF7D3FC6A4650750012907568466C
:104A8000FCF786FF6A46D07520216846FCF776F968
:104A900009B030BD760000207C000020820000209C
:104AA000F8B5384D384E28880027384CB04209D226
:104AB0006078401CC0B260700F2810D9207801289F
:104AC00002D00CE067700AE02770FFF78BFA6420D1
:104AD000FCF726FCFFF7A2FA6420FCF721FC2888EB
:104AE000B04215D26888B04212D2A888AF21C9005E
:104AF00088420DD919218901884209D2A078401C29
:104B0000C0B2A070962811D92078002802D00DE0FC
:104B1000A7700BE001202070FFF764FA6420FCF717
:104B2000FFFBFFF77BFA6420FCF7FAFB2888B04212
:104B300025D26888B04222D2A888B0421FD2E0783D
:104B4000401CC0B2E070642818D92078002815D025
:104B5000E770FCF7FBFBFCF7F3FBFFF743FA3220AF
:104B6000FCF7DEFBFFF75AFA3220FCF7D9FBFFF720
:104B700039FA3220FCF7D4FBFFF750FAF8BDE770A2
:104B8000F8BD000010010020140500008E00002078
:104B900003887D21C9008B4200D80B467D2212017B
:104BA0000380934200D31346038083888B4200D84E
:104BB0000B468380934200D313468380C3888B4285
:104BC00000D80B46C380934200D31346C38043886A
:104BD0008B4200D80B464380934200D31346438058
:104BE00003898B4200D80B460381934200D31346BE
:104BF000038143898B4200D80B464381934200D303
:104C00001346438183898B4200D9194681819142A1
:104C100000D20A46828170477047000070B50B4C85
:104C20002078401CC0B22070012805D0022806D090
:104C30000025032808D105E0FFF7BEFE70BDFFF791
:104C4000DDFD70BDFFF716FE257070BDCE000020A3
:104C500010B50446FEF762FF00281AD0D020FEF7F8
:104C6000B7FFFEF795FF002814D02046FEF7B0FFEF
:104C7000FEF78EFFFEF752FFD120FEF7A9FFFEF7E9
:104C800087FFFEF725FF0446FEF70AFFFEF768FFE1
:104C9000204610BDFEF764FF002010BD70B50C4625
:104CA0000546FEF73BFF002813D0D020FEF790FF0B
:104CB000FEF76EFF00280DD02846FEF789FFFEF7AD
:104CC00067FF2046FEF784FFFEF762FFFEF748FF0E
:104CD000012070BDFEF744FF002070BD10B5FDF748
:104CE000B5FD10BD30B597B034216846FBF731FAF9
:104CF00000240D940E940F94182111A81094FBF722
:104D000028FA01204002FDF707FE0225E801039082
:104D100000954020059008200A9080030B9007958D
:104D2000000304940C90089509946846FDF7C6FFAB
:104D300007200D900F9402210E9510940DA8FDF7F9
:104D4000B7FE68031190159411A8FDF70BFE17B07C
:104D500030BD000001200249C00688607047000095
:104D600000ED00E010B50248FEF7FCFA10BD0000AF
:104D7000E002002070B50268174B184E984201D02F
:104D8000B04203D17024A2434C682243144C154D09
:104D9000984208D0B04206D0134EB04203D0A04291
:104DA00001D0A84204D103263602B243CE68324372
:104DB0008026B2434E69324302608A68C2620A6842
:104DC0008262984203D0A04201D0A84201D1096971
:104DD00001630121416170BD002C014000040040CD
:104DE00000440140004801400020004010B5CB06BF
:104DF000DB0E0121046A99408C430462016A9A40E7
:104E00001143016210BD30B58468FF252D021B02DD
:104E10001343AC430B432343836030BD8268034B91
:104E20001A400A4307210A43826070478FFFCFFF71
:104E300010B500211148FEF73FFC002801D0FCF717
:104E40000BFD04210D48FEF737FC002801D0FCF7CC
:104E500003FD08210948FEF72FFC002801D0FCF7CC
:104E6000FBFC0C210548FEF727FC002801D0FCF7CD
:104E7000F3FC02484030FEF7F1F910BDA00200201B
:104E8000F0B5026A520852000262056A43688269FC
:104E9000164C184E224092080C68920014430222CD
:104EA00095438A682A43124DA84204D0B04202D0EA
:104EB000114FB84206D10827BA43CF6817430422DE
:104EC00097433A46A84204D0B04202D00A4DA842C5
:104ED00006D103252D02AB434D691D438B692B433E
:104EE00043608461496841630262F0BD8FFFFEFF49
:104EF000002C0140004401400048014070B5026AA6
:104F000010239A430262046A43688269164D2A405C
:104F100003252D02AA430D682D0215432022944338
:104F20008A6812012243114CA04208D11446CA6873
:104F30008026B443120122434024A24305E00C4CD6
:104F4000A04202D00B4CA04208D10324A402A343E8
:104F50004C69A4001C438B699B002343436085611B
:104F600049688163026270BDFF8FFFFE002C014023
:104F7000004401400048014070B5026AFF2301333C
:104F80009A430262046A4368C269164D2A40920835
:104F90000D68920015430122520294438A6812025E
:104FA0002243114CA04208D11446CA68C614B44327
:104FB000120222430415A24305E00C4CA04202D089
:104FC0000B4CA04208D103242403A3434C692401C1
:104FD0001C438B691B0123434360C5614968C1635E
:104FE000026270BD8FFFFEFF002C014000440140B3
:104FF0000048014030B5026A01231B039A43026254
:10500000046A4568C269124B1A4003231B029A4383
:105010000B681B0213430122520394438A68120354
:1050200022430C4CA04205D00B4CA04202D00B4CAA
:10503000A04206D12C460125AD03AC434D69AD011C
:1050400025434560C36149680164026230BD0000C8
:10505000FF8FFFFE002C014000440140004801404A
:1050600070B5026A01263604B2430262036A4268DE
:10507000446D0E4D2C400D6825437400A3430C89EC
:1050800024041C430A4B984205D00A4B984202D094
:10509000094B984203D14B69B2431B021A43426049
:1050A000456549688165046270BD00008FFFFEFFA1
:1050B000002C0140004401400048014070B5026AE4
:1050C00001231B059A430262036A4268456D104C36
:1050D00025400C6824022C4301256D05AB430D8946
:1050E0002D051D430B4B984205D00B4B984202D027
:1050F0000A4B984206D101261346B6044A69B343C7
:1051000092021A43426044654968C165056270BDF8
:10511000FF8FFFFE002C0140004401400048014089
:1051200030B5036A046A6408640004628469F02587
:10513000AC43120122430A24A3430B43826103625E
:1051400030BD30B5036A1024A34303628469036A47
:105150000F252D031203AC432243A024A3430901CE
:1051600019438261016230BD7CB5FFF7C3F80028A6
:1051700005D116480168491C0160FFF707F9FEF7E1
:10518000F1FF13491348FBF71FFC13491348FCF7C1
:1051900097FC13491048FCF773FC0D4D0420285E62
:1051A000FBF72AF906460220285EFBF725F904469C
:1051B0000020285EFBF720F9034609480196009479
:1051C00007C8FEF72BFDFBF7A3FD7CBD34000020D4
:1051D0008200002076000020880000207C00002053
:1051E0000401002010B5FCF7B5FB01220249034879
:1051F000FDF774F810BD0000A8000020C0010020D9
:1052000010B50448FCF7D4FB03490248FBF7DCFD6A
:1052100010BD0000200100201001002010B503483F
:10522000034902780348FBF7ABFE10BD8E00002057
:10523000100100200401002010B5018DC90707D01E
:1052400001684A6801235B049A43C36A1A434A60AF
:10525000018D890707D501684A6801231B049A4319
:10526000036B1A434A60018D490707D501684A68F4
:1052700001239B049A43436B1A434A60018D09073B
:1052800007D501684A680123DB039A43836B1A43FD
:105290004A60018DC90607D50268916801231B0386
:1052A0009943C36B19439160018D890607D5016845
:1052B0008A6801235B039A43036C1A438A60018D59
:1052C000490612D503685A6801210905446C8A43CE
:1052D00022435A60426C8A4207D102685168032314
:1052E0005B059943836C19435160018D090607D50D
:1052F00001684A680123DB04C06C9A4302434A6098
:1053000010BD0000FEB50546002680350446AE609F
:10531000FDF796FA019020680068124F000709D542
:1053200001210097002249052046019B00F0AAF9BF
:1053300000280DD12068006840070BD50121009797
:10534000002289052046019B00F09CF9002801D02D
:105350000320FEBD2020286068606034267700208E
:10536000FEBD0000FFFFFF0110B5806A002201466C
:105370004031CA83CA82FEF7EFF910BD01680A689E
:10538000FF2321339A430A6001688A68044B1A405C
:105390008A60202284210A500021C16670470000E3
:1053A000FEFFFFEFF8B5044680682169E269084313
:1053B0006169002611430843616E22680143106849
:1053C000A94B184008431060216848680322120363
:1053D0009043E26810434860A169206A226808434C
:1053E0009168A24B1940014391602068C16A626ACA
:1053F000090909011143C1629D49206888420FD102
:105400009C4840698007800F10D0012804D00228F2
:105410000CD0032809D101E0042007E0082005E0B2
:105420009549884201D1002000E010200122D203DA
:10543000E169D511914B924F91426FD1002806D06E
:10544000022835D004287AD0082869D17AE0FDF7FF
:10545000DBFB76E0012815D0022815D0032815D0F3
:10546000042815D0052815D0062815D0072815D0F2
:10547000082815D0092815D00A2815D00B2814D0D3
:10548000012512E0022510E004250EE006250CE0BF
:1054900008250AE00A2508E00C2506E0102504E0AE
:1054A000202502E0402500E08025294610461BE02B
:1054B000606A002815D001282AD002282AD00328A3
:1054C0002AD004282DD005282DD006282DD0072835
:1054D0002DD008282DD009282DD00A282DD00B2812
:1054E00000D0012529461846FAF702FE61684000FF
:1054F0004A088018FAF7FCFD80B201461039B9421B
:105500000ED85F49491C01400007400F08437FE067
:105510000225E7E70425E5E70625E3E716E00EE0C8
:105520008AE00825DEE70A25DCE70C25DAE7102506
:10553000D8E72025D6E74025D4E78025D2E7FDF738
:1055400077FB0246606A00289AD083E7002806D0DD
:10555000022835D0042874D0082879D174E0FDF7EA
:1055600053FB70E0012815D0022815D0032815D070
:10557000042815D0052815D0062815D0072815D0E1
:10558000082815D0092815D00A2815D00B2814D0C2
:10559000012512E0022510E004250EE006250CE0AE
:1055A00008250AE00A2508E00C2506E0102504E09D
:1055B000202502E0402500E08025294610461BE01A
:1055C000606A002815D0012825D0022825D003289C
:1055D00025D0042825D0052825D0062825D0072841
:1055E00025D0082825D0092827D00A2827D00B281D
:1055F00000D0012529461846FAF77AFD61684A0865
:105600008018FAF775FD80B201461039B9421FD8EB
:105610002168C8601DE00225ECE70425EAE70625BD
:10562000E8E70825E6E70A25E4E70C25E2E7102588
:10563000E0E72025DEE704E00AE04025DAE7802500
:10564000D8E7FDF7F5FA0246606A0028A0D089E79E
:105650000126204601214030418501850020E06679
:1056600020673046F8BD0000F369FFCFFFF4FF115B
:105670000038014040100240004400400024F40083
:10568000EFFF0000FFB581B017460E4604460A9DA5
:1056900009E0681C07D0FDF7D3F80499401AA84226
:1056A0000CD8002D0AD02068C169304688431AD032
:1056B0000020B842EDD0002005B0F0BD20680168A0
:1056C000FF22A132914301602068816849084900A6
:1056D00081602021204680300160416000206034DC
:1056E00020770320E8E70120E3E7000010B5024837
:1056F000FEF734F810BD0000200300202021020C2A
:1057000001D010211046020A01D0104608390209C2
:1057100001D01046091F820801D01046891E420898
:1057200001D0881E7047081A704700004900CA025D
:105730000243100000D004204A0D01D00122104382
:10574000044A490D914201D102210843012800D1A8
:1057500005207047FF070000F8B54B48002401887A
:10576000671E4A4E30884A4D3A0C00295BD0494B9F
:10577000C91817D0484AD14211D100287ED05942C9
:1057800088420CD140482946686008392846FCF711
:1057900033FF002805D100221346314611E0FBF704
:1057A00081FFF8BD002810D09042F8D13849384820
:1057B00008396E60FCF720FF0028F2D10022324940
:1057C00013460120FCF758FFF8BD2F48C28860003F
:1057D00032490090085A824200D127B2BC420FD011
:1057E0002B490C39FBF7DCFF012809D02B49009825
:1057F000085A27490C390988FBF7F4FF0028E3D140
:10580000641CA4B2102CE0D3002213461E490120D0
:10581000FCF732FF0028D7D109E01D491C480839A0
:10582000FCF7EAFEF8BD0028B9D0904201D16E60C5
:10583000F3E71648C28819496600885B824200D1A6
:1058400027B2BC420ED012490C39FBF7A9FF012840
:1058500008D00F4911480C39805B0988FBF7C2FF5B
:105860000028DFD1641CA4B2102CE2D3002213461E
:1058700006490120FCF700FF002800E000E0D1D13C
:1058800001486860C9E7000000000108000801083D
:105890000C0000201211FFFFEFEEFFFF560000206A
:1058A0008307FF22DB0E9A408907090E99400028E2
:1058B00008DB830809489B001B18186890430843BD
:1058C000186070470007000F0838830804489B00E1
:1058D0001B18D86990430843D861704700E400E082
:1058E00000ED00E0F8B504464F1EC8000838211846
:1058F00015461E46086849683A4606239A4310D062
:105900002A463346FAF710FD3A46D200083AA31861
:105910001A687F1E5B68FAF77FFE06223B469343B8
:10592000EED1022F23D0042F11D0062F2FD12A46DB
:105930003346FAF7F9FCE36AA26AFAF76DFE2A46E3
:105940003346FAF7F1FC636A226AFAF765FE2A46E3
:105950003346FAF7E9FCE369A269FAF75DFE2A46E5
:105960003346FAF7E1FC63692269FAF755FE2A46E5
:105970003346FAF7D9FCE368A268FAF74DFE2A46E7
:105980003346FAF7D1FC63682268FAF745FEF8BDA2
:1059900010B50122FAF76AFF10BD10B5FAF73CFE08
:1059A00010BD002210B5134610461146FAF7E6FE68
:1059B00010BD0000034A10B500201107FAF756FF8A
:1059C00010BD000001FDFFFF02E008C8121F08C162
:1059D000002AFAD170477047002001E001C1121F70
:1059E000002AFBD1704700000149086070470000A1
:1059F000F0000020F0B504464F008E488FB07F08BD
:105A00000D460D91874228DB4042381820430CD0C8
:105A10008948874203DC874218D1002C16D02046E3
:105A20002946FFF7B5FF0FB0F0BD844A844B2046EE
:105A30002946FAF779FC07460E46824A824B2046F1
:105A40002946FAF771FC3A46334649E00120FFF750
:105A5000CBFFFFF7A6FF0FB0F0BD7C48874243DACB
:105A6000F920800587420BDA20462946FFF75EFEC3
:105A7000042801D1FFF79EFF204629460FB0F0BD54
:105A800022462B4610462946FAF74EFC06460246A9
:105A90006F480F460B4606217844FFF723FF324636
:105AA0003B46FAF741FC06906A48079132463B466E
:105AB00004217844FFF716FF32463B46FAF734FCE0
:105AC00000225C4BFAF7A8FD02460B4607990698A0
:105AD000FAF754FE22462B46FAF726FC22462B46BE
